{
  "contractName": "StarkToken",
  "abi": [
    {
      "constant": true,
      "inputs": [],
      "name": "totalSupply",
      "outputs": [
        {
          "name": "",
          "type": "uint256"
        }
      ],
      "payable": false,
      "stateMutability": "view",
      "type": "function"
    },
    {
      "inputs": [],
      "payable": false,
      "stateMutability": "nonpayable",
      "type": "constructor"
    }
  ],
  "bytecode": "0x6080604052348015600f57600080fd5b50620f4240600081905550607b806100286000396000f3fe6080604052348015600f57600080fd5b506004361060285760003560e01c806318160ddd14602d575b600080fd5b60336049565b6040518082815260200191505060405180910390f35b6000548156fea165627a7a723058202fd59099eec0e2384502b3946c614d69cf31acd2f65b368742c80fc1dba5512e0029",
  "source": "pragma solidity ^0.5.0;\r\n\r\ncontract StarkToken {\r\n\r\n    uint256 public totalSupply;\r\n\r\n    constructor () public {\r\n        totalSupply = 1000000;\r\n    }\r\n\r\n}",
  "sourcePath": "C:/Users/Manolingam/Desktop/token/contracts/StarkToken.sol",
  "compiler": {
    "name": "solc",
    "version": "0.5.8+commit.23d335f2.Emscripten.clang"
  },
  "schemaVersion": "3.0.11",
  "updatedAt": "2019-10-14T15:48:04.727Z",
  "devdoc": {
    "methods": {}
  },
  "userdoc": {
    "methods": {}
  }
}